{
  "contractName": "CrowdFundingWithDeadline",
  "abi": [
    {
      "constant": true,
      "inputs": [],
      "name": "name",
      "outputs": [
        {
          "name": "",
          "type": "string"
        }
      ],
      "payable": false,
      "stateMutability": "view",
      "type": "function",
      "signature": "0x06fdde03"
    },
    {
      "constant": true,
      "inputs": [],
      "name": "beneficiary",
      "outputs": [
        {
          "name": "",
          "type": "address"
        }
      ],
      "payable": false,
      "stateMutability": "view",
      "type": "function",
      "signature": "0x38af3eed"
    },
    {
      "constant": true,
      "inputs": [
        {
          "name": "",
          "type": "address"
        }
      ],
      "name": "amounts",
      "outputs": [
        {
          "name": "",
          "type": "uint256"
        }
      ],
      "payable": false,
      "stateMutability": "view",
      "type": "function",
      "signature": "0x55a3b2c1"
    },
    {
      "constant": true,
      "inputs": [],
      "name": "fundingDeadline",
      "outputs": [
        {
          "name": "",
          "type": "uint256"
        }
      ],
      "payable": false,
      "stateMutability": "view",
      "type": "function",
      "signature": "0x796b23bb"
    },
    {
      "constant": true,
      "inputs": [],
      "name": "collected",
      "outputs": [
        {
          "name": "",
          "type": "bool"
        }
      ],
      "payable": false,
      "stateMutability": "view",
      "type": "function",
      "signature": "0x84bcefd4"
    },
    {
      "constant": true,
      "inputs": [],
      "name": "targetAmount",
      "outputs": [
        {
          "name": "",
          "type": "uint256"
        }
      ],
      "payable": false,
      "stateMutability": "view",
      "type": "function",
      "signature": "0x953b8fb8"
    },
    {
      "constant": true,
      "inputs": [],
      "name": "state",
      "outputs": [
        {
          "name": "",
          "type": "uint8"
        }
      ],
      "payable": false,
      "stateMutability": "view",
      "type": "function",
      "signature": "0xc19d93fb"
    },
    {
      "constant": true,
      "inputs": [],
      "name": "totalCollected",
      "outputs": [
        {
          "name": "",
          "type": "uint256"
        }
      ],
      "payable": false,
      "stateMutability": "view",
      "type": "function",
      "signature": "0xe29eb836"
    },
    {
      "inputs": [
        {
          "name": "contractName",
          "type": "string"
        },
        {
          "name": "targetAmountEth",
          "type": "uint256"
        },
        {
          "name": "durationInMin",
          "type": "uint256"
        },
        {
          "name": "beneficiaryAddress",
          "type": "address"
        }
      ],
      "payable": false,
      "stateMutability": "nonpayable",
      "type": "constructor",
      "signature": "constructor"
    },
    {
      "anonymous": false,
      "inputs": [
        {
          "indexed": false,
          "name": "addr",
          "type": "address"
        },
        {
          "indexed": false,
          "name": "totalCollected",
          "type": "uint256"
        },
        {
          "indexed": false,
          "name": "succeeded",
          "type": "bool"
        }
      ],
      "name": "CampaignFinished",
      "type": "event",
      "signature": "0x6fa7e87ebbd87ed4f1c40bba63144f68fd2bb022fb748ab3b61b5411c39bd474"
    },
    {
      "constant": false,
      "inputs": [],
      "name": "contribute",
      "outputs": [],
      "payable": true,
      "stateMutability": "payable",
      "type": "function",
      "signature": "0xd7bb99ba"
    },
    {
      "constant": false,
      "inputs": [],
      "name": "finishCrowdFunding",
      "outputs": [],
      "payable": false,
      "stateMutability": "nonpayable",
      "type": "function",
      "signature": "0x083dca11"
    },
    {
      "constant": false,
      "inputs": [],
      "name": "collect",
      "outputs": [],
      "payable": false,
      "stateMutability": "nonpayable",
      "type": "function",
      "signature": "0xe5225381"
    },
    {
      "constant": false,
      "inputs": [],
      "name": "withdraw",
      "outputs": [],
      "payable": false,
      "stateMutability": "nonpayable",
      "type": "function",
      "signature": "0x3ccfd60b"
    },
    {
      "constant": false,
      "inputs": [],
      "name": "kill",
      "outputs": [],
      "payable": false,
      "stateMutability": "nonpayable",
      "type": "function",
      "signature": "0x41c0e1b5"
    }
  ],
  "bytecode": "0x608060405234801561001057600080fd5b50604051610c88380380610c88833981016040908152815160208084015192840151606085015192909401805190949291610050916000918701906101dc565b5073__Utils_________________________________63d8916bb9846040518263ffffffff167c01000000000000000000000000000000000000000000000000000000000281526004018082815260200191505060206040518083038186803b1580156100bc57600080fd5b505af41580156100d0573d6000803e3d6000fd5b505050506040513d60208110156100e657600080fd5b5051600155604080517f529b380f00000000000000000000000000000000000000000000000000000000815260048101849052905173__Utils_________________________________9163529b380f916024808301926020929190829003018186803b15801561015657600080fd5b505af415801561016a573d6000803e3d6000fd5b505050506040513d602081101561018057600080fd5b50516101936401000000006101d7810204565b0160025560038054600160a060020a0319908116600160a060020a03939093169290921760a060020a60ff0219169055600780549091163317905550610274915050565b425b90565b828054600181600116156101000203166002900490600052602060002090601f016020900481019282601f1061021d57805160ff191683800117855561024a565b8280016001018555821561024a579182015b8281111561024a57825182559160200191906001019061022f565b5061025692915061025a565b5090565b6101d991905b808211156102565760008155600101610260565b610a05806102836000396000f3006080604052600436106100c45763ffffffff7c010000000000000000000000000000000000000000000000000000000060003504166306fdde0381146100c9578063083dca111461015357806338af3eed1461016a5780633ccfd60b146101a857806341c0e1b5146101bd57806355a3b2c1146101d2578063796b23bb1461021257806384bcefd414610227578063953b8fb814610250578063c19d93fb14610265578063d7bb99ba1461029e578063e29eb836146102a6578063e5225381146102bb575b600080fd5b3480156100d557600080fd5b506100de6102d0565b6040805160208082528351818301528351919283929083019185019080838360005b83811015610118578181015183820152602001610100565b50505050905090810190601f1680156101455780820380516001836020036101000a031916815260200191505b509250505060405180910390f35b34801561015f57600080fd5b5061016861035e565b005b34801561017657600080fd5b5061017f61056e565b6040805173ffffffffffffffffffffffffffffffffffffffff9092168252519081900360200190f35b3480156101b457600080fd5b5061016861058a565b3480156101c957600080fd5b5061016861069d565b3480156101de57600080fd5b5061020073ffffffffffffffffffffffffffffffffffffffff6004351661074d565b60408051918252519081900360200190f35b34801561021e57600080fd5b5061020061075f565b34801561023357600080fd5b5061023c610765565b604080519115158252519081900360200190f35b34801561025c57600080fd5b5061020061076e565b34801561027157600080fd5b5061027a610774565b6040518082600381111561028a57fe5b60ff16815260200191505060405180910390f35b610168610784565b3480156102b257600080fd5b506102006108b2565b3480156102c757600080fd5b506101686108b8565b6000805460408051602060026001851615610100026000190190941693909304601f810184900484028201840190925281815292918301828280156103565780601f1061032b57610100808354040283529160200191610356565b820191906000526020600020905b81548152906001019060200180831161033957829003601f168201915b505050505081565b6000806003805460a060020a900460ff169081111561037957fe5b146103bc576040805160e560020a62461bcd02815260206004820152600d60248201526000805160206109ba833981519152604482015290519081900360640190fd5b606060405190810160405280602881526020017f43616e6e6f742066696e6973682063616d706169676e206265666f726520612081526020017f646561646c696e650000000000000000000000000000000000000000000000008152506002546104246109b5565b829111156104b35760405160e560020a62461bcd0281526004018080602001828103825283818151815260200191508051906020019080838360005b83811015610478578181015183820152602001610460565b50505050905090810190601f1680156104a55780820380516001836020036101000a031916815260200191505b509250505060405180910390fd5b5060055460ff1615156104e9576003805474ff0000000000000000000000000000000000000000191660a060020a17905561051f565b6003805474ff00000000000000000000000000000000000000001916740200000000000000000000000000000000000000001790555b60065460055460408051308152602081019390935260ff909116151582820152517f6fa7e87ebbd87ed4f1c40bba63144f68fd2bb022fb748ab3b61b5411c39bd4749181900360600190a15050565b60035473ffffffffffffffffffffffffffffffffffffffff1681565b60006001806003805460a060020a900460ff16908111156105a757fe5b146105ea576040805160e560020a62461bcd02815260206004820152600d60248201526000805160206109ba833981519152604482015290519081900360640190fd5b336000908152600460205260408120541161064f576040805160e560020a62461bcd02815260206004820152601760248201527f4e6f7468696e672077617320636f6e7472696275746564000000000000000000604482015290519081900360640190fd5b33600081815260046020526040808220805490839055905190945084156108fc0291859190818181858888f193505050501515610699573360009081526004602052604090208290555b5050565b60075473ffffffffffffffffffffffffffffffffffffffff163314610732576040805160e560020a62461bcd02815260206004820152602560248201527f4f6e6c7920746865206f776e65722063616e206b696c6c207468697320636f6e60448201527f7472616374000000000000000000000000000000000000000000000000000000606482015290519081900360840190fd5b60075473ffffffffffffffffffffffffffffffffffffffff16ff5b60046020526000908152604090205481565b60025481565b60055460ff1681565b60015481565b60035460a060020a900460ff1681565b6000806003805460a060020a900460ff169081111561079f57fe5b146107e2576040805160e560020a62461bcd02815260206004820152600d60248201526000805160206109ba833981519152604482015290519081900360640190fd5b6040805190810160405280602081526020017f4e6f20636f6e747269627574696f6e7320616674657220646561646c696e65218152506002546108236109b5565b8291116108755760405160e560020a62461bcd02815260040180806020018281038252838181518152602001915080519060200190808383600083811015610478578181015183820152602001610460565b50336000908152600460205260409020805434908101909155600680549091019081905560015411610699576005805460ff191660011790555050565b60065481565b6002806003805460a060020a900460ff16908111156108d357fe5b14610916576040805160e560020a62461bcd02815260206004820152600d60248201526000805160206109ba833981519152604482015290519081900360640190fd5b60035460065460405173ffffffffffffffffffffffffffffffffffffffff9092169181156108fc0291906000818181858888f193505050501561098d576003805474ff00000000000000000000000000000000000000001916740300000000000000000000000000000000000000001790556109b2565b6003805474ff0000000000000000000000000000000000000000191660a060020a1790555b50565b42905600496e76616c696420737461746500000000000000000000000000000000000000a165627a7a7230582086c37a67a14393f4eb0b0fd385902c50652153338aca2b8dba0dbc7dfd4cc37e0029",
  "deployedBytecode": "0x6080604052600436106100c45763ffffffff7c010000000000000000000000000000000000000000000000000000000060003504166306fdde0381146100c9578063083dca111461015357806338af3eed1461016a5780633ccfd60b146101a857806341c0e1b5146101bd57806355a3b2c1146101d2578063796b23bb1461021257806384bcefd414610227578063953b8fb814610250578063c19d93fb14610265578063d7bb99ba1461029e578063e29eb836146102a6578063e5225381146102bb575b600080fd5b3480156100d557600080fd5b506100de6102d0565b6040805160208082528351818301528351919283929083019185019080838360005b83811015610118578181015183820152602001610100565b50505050905090810190601f1680156101455780820380516001836020036101000a031916815260200191505b509250505060405180910390f35b34801561015f57600080fd5b5061016861035e565b005b34801561017657600080fd5b5061017f61056e565b6040805173ffffffffffffffffffffffffffffffffffffffff9092168252519081900360200190f35b3480156101b457600080fd5b5061016861058a565b3480156101c957600080fd5b5061016861069d565b3480156101de57600080fd5b5061020073ffffffffffffffffffffffffffffffffffffffff6004351661074d565b60408051918252519081900360200190f35b34801561021e57600080fd5b5061020061075f565b34801561023357600080fd5b5061023c610765565b604080519115158252519081900360200190f35b34801561025c57600080fd5b5061020061076e565b34801561027157600080fd5b5061027a610774565b6040518082600381111561028a57fe5b60ff16815260200191505060405180910390f35b610168610784565b3480156102b257600080fd5b506102006108b2565b3480156102c757600080fd5b506101686108b8565b6000805460408051602060026001851615610100026000190190941693909304601f810184900484028201840190925281815292918301828280156103565780601f1061032b57610100808354040283529160200191610356565b820191906000526020600020905b81548152906001019060200180831161033957829003601f168201915b505050505081565b6000806003805460a060020a900460ff169081111561037957fe5b146103bc576040805160e560020a62461bcd02815260206004820152600d60248201526000805160206109ba833981519152604482015290519081900360640190fd5b606060405190810160405280602881526020017f43616e6e6f742066696e6973682063616d706169676e206265666f726520612081526020017f646561646c696e650000000000000000000000000000000000000000000000008152506002546104246109b5565b829111156104b35760405160e560020a62461bcd0281526004018080602001828103825283818151815260200191508051906020019080838360005b83811015610478578181015183820152602001610460565b50505050905090810190601f1680156104a55780820380516001836020036101000a031916815260200191505b509250505060405180910390fd5b5060055460ff1615156104e9576003805474ff0000000000000000000000000000000000000000191660a060020a17905561051f565b6003805474ff00000000000000000000000000000000000000001916740200000000000000000000000000000000000000001790555b60065460055460408051308152602081019390935260ff909116151582820152517f6fa7e87ebbd87ed4f1c40bba63144f68fd2bb022fb748ab3b61b5411c39bd4749181900360600190a15050565b60035473ffffffffffffffffffffffffffffffffffffffff1681565b60006001806003805460a060020a900460ff16908111156105a757fe5b146105ea576040805160e560020a62461bcd02815260206004820152600d60248201526000805160206109ba833981519152604482015290519081900360640190fd5b336000908152600460205260408120541161064f576040805160e560020a62461bcd02815260206004820152601760248201527f4e6f7468696e672077617320636f6e7472696275746564000000000000000000604482015290519081900360640190fd5b33600081815260046020526040808220805490839055905190945084156108fc0291859190818181858888f193505050501515610699573360009081526004602052604090208290555b5050565b60075473ffffffffffffffffffffffffffffffffffffffff163314610732576040805160e560020a62461bcd02815260206004820152602560248201527f4f6e6c7920746865206f776e65722063616e206b696c6c207468697320636f6e60448201527f7472616374000000000000000000000000000000000000000000000000000000606482015290519081900360840190fd5b60075473ffffffffffffffffffffffffffffffffffffffff16ff5b60046020526000908152604090205481565b60025481565b60055460ff1681565b60015481565b60035460a060020a900460ff1681565b6000806003805460a060020a900460ff169081111561079f57fe5b146107e2576040805160e560020a62461bcd02815260206004820152600d60248201526000805160206109ba833981519152604482015290519081900360640190fd5b6040805190810160405280602081526020017f4e6f20636f6e747269627574696f6e7320616674657220646561646c696e65218152506002546108236109b5565b8291116108755760405160e560020a62461bcd02815260040180806020018281038252838181518152602001915080519060200190808383600083811015610478578181015183820152602001610460565b50336000908152600460205260409020805434908101909155600680549091019081905560015411610699576005805460ff191660011790555050565b60065481565b6002806003805460a060020a900460ff16908111156108d357fe5b14610916576040805160e560020a62461bcd02815260206004820152600d60248201526000805160206109ba833981519152604482015290519081900360640190fd5b60035460065460405173ffffffffffffffffffffffffffffffffffffffff9092169181156108fc0291906000818181858888f193505050501561098d576003805474ff00000000000000000000000000000000000000001916740300000000000000000000000000000000000000001790556109b2565b6003805474ff0000000000000000000000000000000000000000191660a060020a1790555b50565b42905600496e76616c696420737461746500000000000000000000000000000000000000a165627a7a7230582086c37a67a14393f4eb0b0fd385902c50652153338aca2b8dba0dbc7dfd4cc37e0029",
  "source": "pragma solidity ^0.4.25;\nimport \"./Utils.sol\";\n\ncontract CrowdFundingWithDeadline {\n\n  using Utils for *;\n  \n  enum State { Ongoing, Failed, Succeeded, PaidOut }\n\n  event CampaignFinished(\n    address addr,\n    uint totalCollected,\n    bool succeeded\n  );\n  \n  string public name;\n  uint public targetAmount;\n  uint public fundingDeadline;\n  address public beneficiary;\n  State public state;\n  mapping(address => uint) public amounts;\n  bool public collected;\n  uint public totalCollected;\n  address owner;\n\n  modifier inState(State expectedState) {\n    require(state == expectedState, \"Invalid state\");\n    _;\n  }\n\n  modifier beforeDead(string errorMsg) {\n    require(currentTime() < fundingDeadline, errorMsg);\n    _;\n  }\n\n  modifier afterDead(string errorMsg) {\n    require(currentTime() >= fundingDeadline, errorMsg);\n    _;\n  }\n  \n  constructor (\n      string contractName,\n      uint targetAmountEth,\n      uint durationInMin,\n      address beneficiaryAddress\n    ) public {\n        name = contractName;\n        targetAmount = Utils.etherToWei(targetAmountEth);\n        fundingDeadline = currentTime() + Utils.minutesToSeconds(durationInMin);\n        beneficiary = beneficiaryAddress;\n        state = State.Ongoing;\n        owner = msg.sender;\n    }\n\n    function contribute() public payable inState(State.Ongoing) beforeDead(\"No contributions after deadline!\") {\n      amounts[msg.sender] += msg.value;\n      totalCollected += msg.value;\n\n      if (totalCollected >= targetAmount) {\n        collected = true;\n      }\n    }\n\n    function finishCrowdFunding() public inState(State.Ongoing) afterDead(\"Cannot finish campaign before a deadline\") {\n      if (!collected) {\n        state = State.Failed;\n      } else {\n        state = State.Succeeded;\n      }\n\n      emit CampaignFinished(this, totalCollected, collected);\n    }\n\n    function collect() public inState(State.Succeeded) {\n      if (beneficiary.send(totalCollected)) {\n        state = State.PaidOut;\n      } else {\n        state = State.Failed;\n      }\n    }\n\n    function withdraw() public inState(State.Failed) {\n      require(amounts[msg.sender] > 0, \"Nothing was contributed\");\n      uint contributed = amounts[msg.sender];\n      amounts[msg.sender] = 0;\n\n      if (!msg.sender.send(contributed)) {\n        amounts[msg.sender] = contributed;\n      }\n    }\n    \n    function currentTime() internal view returns(uint) {\n        return now;\n    }\n\n    function kill() external {\n        require(msg.sender == owner, \"Only the owner can kill this contract\");\n        selfdestruct(owner);\n    }\n}",
  "sourcePath": "/Users/ppgdeveloper2/Desktop/ethereum/crowd_funding/contracts/CrowdFundingWithDeadline.sol",
  "compiler": {
    "name": "solc",
    "version": "0.4.25+commit.59dbf8f1.Emscripten.clang"
  },
  "schemaVersion": "3.0.6",
  "updatedAt": "2020-01-03T01:16:51.269Z",
  "devdoc": {
    "methods": {}
  },
  "userdoc": {
    "methods": {}
  }
}