{
  "contractName": "TestCrowdFundingWithDeadline",
  "abi": [
    {
      "constant": true,
      "inputs": [],
      "name": "name",
      "outputs": [
        {
          "name": "",
          "type": "string"
        }
      ],
      "payable": false,
      "stateMutability": "view",
      "type": "function"
    },
    {
      "constant": false,
      "inputs": [],
      "name": "finishCrowdFunding",
      "outputs": [],
      "payable": false,
      "stateMutability": "nonpayable",
      "type": "function"
    },
    {
      "constant": true,
      "inputs": [],
      "name": "beneficiary",
      "outputs": [
        {
          "name": "",
          "type": "address"
        }
      ],
      "payable": false,
      "stateMutability": "view",
      "type": "function"
    },
    {
      "constant": false,
      "inputs": [],
      "name": "withdraw",
      "outputs": [],
      "payable": false,
      "stateMutability": "nonpayable",
      "type": "function"
    },
    {
      "constant": false,
      "inputs": [],
      "name": "kill",
      "outputs": [],
      "payable": false,
      "stateMutability": "nonpayable",
      "type": "function"
    },
    {
      "constant": true,
      "inputs": [
        {
          "name": "",
          "type": "address"
        }
      ],
      "name": "amounts",
      "outputs": [
        {
          "name": "",
          "type": "uint256"
        }
      ],
      "payable": false,
      "stateMutability": "view",
      "type": "function"
    },
    {
      "constant": true,
      "inputs": [],
      "name": "fundingDeadline",
      "outputs": [
        {
          "name": "",
          "type": "uint256"
        }
      ],
      "payable": false,
      "stateMutability": "view",
      "type": "function"
    },
    {
      "constant": true,
      "inputs": [],
      "name": "collected",
      "outputs": [
        {
          "name": "",
          "type": "bool"
        }
      ],
      "payable": false,
      "stateMutability": "view",
      "type": "function"
    },
    {
      "constant": true,
      "inputs": [],
      "name": "targetAmount",
      "outputs": [
        {
          "name": "",
          "type": "uint256"
        }
      ],
      "payable": false,
      "stateMutability": "view",
      "type": "function"
    },
    {
      "constant": true,
      "inputs": [],
      "name": "state",
      "outputs": [
        {
          "name": "",
          "type": "uint8"
        }
      ],
      "payable": false,
      "stateMutability": "view",
      "type": "function"
    },
    {
      "constant": false,
      "inputs": [],
      "name": "contribute",
      "outputs": [],
      "payable": true,
      "stateMutability": "payable",
      "type": "function"
    },
    {
      "constant": true,
      "inputs": [],
      "name": "totalCollected",
      "outputs": [
        {
          "name": "",
          "type": "uint256"
        }
      ],
      "payable": false,
      "stateMutability": "view",
      "type": "function"
    },
    {
      "constant": false,
      "inputs": [],
      "name": "collect",
      "outputs": [],
      "payable": false,
      "stateMutability": "nonpayable",
      "type": "function"
    },
    {
      "inputs": [
        {
          "name": "contractName",
          "type": "string"
        },
        {
          "name": "targetAmountEth",
          "type": "uint256"
        },
        {
          "name": "durationInMin",
          "type": "uint256"
        },
        {
          "name": "beneficiaryAddress",
          "type": "address"
        }
      ],
      "payable": false,
      "stateMutability": "nonpayable",
      "type": "constructor"
    },
    {
      "anonymous": false,
      "inputs": [
        {
          "indexed": false,
          "name": "addr",
          "type": "address"
        },
        {
          "indexed": false,
          "name": "totalCollected",
          "type": "uint256"
        },
        {
          "indexed": false,
          "name": "succeeded",
          "type": "bool"
        }
      ],
      "name": "CampaignFinished",
      "type": "event"
    },
    {
      "constant": false,
      "inputs": [
        {
          "name": "newTime",
          "type": "uint256"
        }
      ],
      "name": "setTime",
      "outputs": [],
      "payable": false,
      "stateMutability": "nonpayable",
      "type": "function"
    }
  ],
  "bytecode": "0x608060405234801561001057600080fd5b50604051610cc0380380610cc08339810160409081528151602080840151928401516060850151929094018051909492918591859185918591610058916000918701906101ea565b5073__Utils_________________________________63d8916bb9846040518263ffffffff167c01000000000000000000000000000000000000000000000000000000000281526004018082815260200191505060206040518083038186803b1580156100c457600080fd5b505af41580156100d8573d6000803e3d6000fd5b505050506040513d60208110156100ee57600080fd5b5051600155604080517f529b380f00000000000000000000000000000000000000000000000000000000815260048101849052905173__Utils_________________________________9163529b380f916024808301926020929190829003018186803b15801561015e57600080fd5b505af4158015610172573d6000803e3d6000fd5b505050506040513d602081101561018857600080fd5b505161019b6401000000006101e3810204565b0160025560038054600160a060020a0319908116600160a060020a03939093169290921760a060020a60ff021916905560078054909116331790555061028295505050505050565b6008545b90565b828054600181600116156101000203166002900490600052602060002090601f016020900481019282601f1061022b57805160ff1916838001178555610258565b82800160010185558215610258579182015b8281111561025857825182559160200191906001019061023d565b50610264929150610268565b5090565b6101e791905b80821115610264576000815560010161026e565b610a2f806102916000396000f3006080604052600436106100cf5763ffffffff7c010000000000000000000000000000000000000000000000000000000060003504166306fdde0381146100d4578063083dca111461015e57806338af3eed146101755780633beb26c4146101b35780633ccfd60b146101cb57806341c0e1b5146101e057806355a3b2c1146101f5578063796b23bb1461023557806384bcefd41461024a578063953b8fb814610273578063c19d93fb14610288578063d7bb99ba146102c1578063e29eb836146102c9578063e5225381146102de575b600080fd5b3480156100e057600080fd5b506100e96102f3565b6040805160208082528351818301528351919283929083019185019080838360005b8381101561012357818101518382015260200161010b565b50505050905090810190601f1680156101505780820380516001836020036101000a031916815260200191505b509250505060405180910390f35b34801561016a57600080fd5b50610173610381565b005b34801561018157600080fd5b5061018a610591565b6040805173ffffffffffffffffffffffffffffffffffffffff9092168252519081900360200190f35b3480156101bf57600080fd5b506101736004356105ad565b3480156101d757600080fd5b506101736105b2565b3480156101ec57600080fd5b506101736106c5565b34801561020157600080fd5b5061022373ffffffffffffffffffffffffffffffffffffffff60043516610775565b60408051918252519081900360200190f35b34801561024157600080fd5b50610223610787565b34801561025657600080fd5b5061025f61078d565b604080519115158252519081900360200190f35b34801561027f57600080fd5b50610223610796565b34801561029457600080fd5b5061029d61079c565b604051808260038111156102ad57fe5b60ff16815260200191505060405180910390f35b6101736107ac565b3480156102d557600080fd5b506102236108da565b3480156102ea57600080fd5b506101736108e0565b6000805460408051602060026001851615610100026000190190941693909304601f810184900484028201840190925281815292918301828280156103795780601f1061034e57610100808354040283529160200191610379565b820191906000526020600020905b81548152906001019060200180831161035c57829003601f168201915b505050505081565b6000806003805460a060020a900460ff169081111561039c57fe5b146103df576040805160e560020a62461bcd02815260206004820152600d60248201526000805160206109e4833981519152604482015290519081900360640190fd5b606060405190810160405280602881526020017f43616e6e6f742066696e6973682063616d706169676e206265666f726520612081526020017f646561646c696e650000000000000000000000000000000000000000000000008152506002546104476109dd565b829111156104d65760405160e560020a62461bcd0281526004018080602001828103825283818151815260200191508051906020019080838360005b8381101561049b578181015183820152602001610483565b50505050905090810190601f1680156104c85780820380516001836020036101000a031916815260200191505b509250505060405180910390fd5b5060055460ff16151561050c576003805474ff0000000000000000000000000000000000000000191660a060020a179055610542565b6003805474ff00000000000000000000000000000000000000001916740200000000000000000000000000000000000000001790555b60065460055460408051308152602081019390935260ff909116151582820152517f6fa7e87ebbd87ed4f1c40bba63144f68fd2bb022fb748ab3b61b5411c39bd4749181900360600190a15050565b60035473ffffffffffffffffffffffffffffffffffffffff1681565b600855565b60006001806003805460a060020a900460ff16908111156105cf57fe5b14610612576040805160e560020a62461bcd02815260206004820152600d60248201526000805160206109e4833981519152604482015290519081900360640190fd5b3360009081526004602052604081205411610677576040805160e560020a62461bcd02815260206004820152601760248201527f4e6f7468696e672077617320636f6e7472696275746564000000000000000000604482015290519081900360640190fd5b33600081815260046020526040808220805490839055905190945084156108fc0291859190818181858888f1935050505015156106c1573360009081526004602052604090208290555b5050565b60075473ffffffffffffffffffffffffffffffffffffffff16331461075a576040805160e560020a62461bcd02815260206004820152602560248201527f4f6e6c7920746865206f776e65722063616e206b696c6c207468697320636f6e60448201527f7472616374000000000000000000000000000000000000000000000000000000606482015290519081900360840190fd5b60075473ffffffffffffffffffffffffffffffffffffffff16ff5b60046020526000908152604090205481565b60025481565b60055460ff1681565b60015481565b60035460a060020a900460ff1681565b6000806003805460a060020a900460ff16908111156107c757fe5b1461080a576040805160e560020a62461bcd02815260206004820152600d60248201526000805160206109e4833981519152604482015290519081900360640190fd5b6040805190810160405280602081526020017f4e6f20636f6e747269627574696f6e7320616674657220646561646c696e652181525060025461084b6109dd565b82911161089d5760405160e560020a62461bcd0281526004018080602001828103825283818151815260200191508051906020019080838360008381101561049b578181015183820152602001610483565b503360009081526004602052604090208054349081019091556006805490910190819055600154116106c1576005805460ff191660011790555050565b60065481565b6002806003805460a060020a900460ff16908111156108fb57fe5b1461093e576040805160e560020a62461bcd02815260206004820152600d60248201526000805160206109e4833981519152604482015290519081900360640190fd5b60035460065460405173ffffffffffffffffffffffffffffffffffffffff9092169181156108fc0291906000818181858888f19350505050156109b5576003805474ff00000000000000000000000000000000000000001916740300000000000000000000000000000000000000001790556109da565b6003805474ff0000000000000000000000000000000000000000191660a060020a1790555b50565b600854905600496e76616c696420737461746500000000000000000000000000000000000000a165627a7a72305820c558721210e8989efb8f528c935f592a6a645fe205261a179b605a6a23c43d550029",
  "deployedBytecode": "0x6080604052600436106100cf5763ffffffff7c010000000000000000000000000000000000000000000000000000000060003504166306fdde0381146100d4578063083dca111461015e57806338af3eed146101755780633beb26c4146101b35780633ccfd60b146101cb57806341c0e1b5146101e057806355a3b2c1146101f5578063796b23bb1461023557806384bcefd41461024a578063953b8fb814610273578063c19d93fb14610288578063d7bb99ba146102c1578063e29eb836146102c9578063e5225381146102de575b600080fd5b3480156100e057600080fd5b506100e96102f3565b6040805160208082528351818301528351919283929083019185019080838360005b8381101561012357818101518382015260200161010b565b50505050905090810190601f1680156101505780820380516001836020036101000a031916815260200191505b509250505060405180910390f35b34801561016a57600080fd5b50610173610381565b005b34801561018157600080fd5b5061018a610591565b6040805173ffffffffffffffffffffffffffffffffffffffff9092168252519081900360200190f35b3480156101bf57600080fd5b506101736004356105ad565b3480156101d757600080fd5b506101736105b2565b3480156101ec57600080fd5b506101736106c5565b34801561020157600080fd5b5061022373ffffffffffffffffffffffffffffffffffffffff60043516610775565b60408051918252519081900360200190f35b34801561024157600080fd5b50610223610787565b34801561025657600080fd5b5061025f61078d565b604080519115158252519081900360200190f35b34801561027f57600080fd5b50610223610796565b34801561029457600080fd5b5061029d61079c565b604051808260038111156102ad57fe5b60ff16815260200191505060405180910390f35b6101736107ac565b3480156102d557600080fd5b506102236108da565b3480156102ea57600080fd5b506101736108e0565b6000805460408051602060026001851615610100026000190190941693909304601f810184900484028201840190925281815292918301828280156103795780601f1061034e57610100808354040283529160200191610379565b820191906000526020600020905b81548152906001019060200180831161035c57829003601f168201915b505050505081565b6000806003805460a060020a900460ff169081111561039c57fe5b146103df576040805160e560020a62461bcd02815260206004820152600d60248201526000805160206109e4833981519152604482015290519081900360640190fd5b606060405190810160405280602881526020017f43616e6e6f742066696e6973682063616d706169676e206265666f726520612081526020017f646561646c696e650000000000000000000000000000000000000000000000008152506002546104476109dd565b829111156104d65760405160e560020a62461bcd0281526004018080602001828103825283818151815260200191508051906020019080838360005b8381101561049b578181015183820152602001610483565b50505050905090810190601f1680156104c85780820380516001836020036101000a031916815260200191505b509250505060405180910390fd5b5060055460ff16151561050c576003805474ff0000000000000000000000000000000000000000191660a060020a179055610542565b6003805474ff00000000000000000000000000000000000000001916740200000000000000000000000000000000000000001790555b60065460055460408051308152602081019390935260ff909116151582820152517f6fa7e87ebbd87ed4f1c40bba63144f68fd2bb022fb748ab3b61b5411c39bd4749181900360600190a15050565b60035473ffffffffffffffffffffffffffffffffffffffff1681565b600855565b60006001806003805460a060020a900460ff16908111156105cf57fe5b14610612576040805160e560020a62461bcd02815260206004820152600d60248201526000805160206109e4833981519152604482015290519081900360640190fd5b3360009081526004602052604081205411610677576040805160e560020a62461bcd02815260206004820152601760248201527f4e6f7468696e672077617320636f6e7472696275746564000000000000000000604482015290519081900360640190fd5b33600081815260046020526040808220805490839055905190945084156108fc0291859190818181858888f1935050505015156106c1573360009081526004602052604090208290555b5050565b60075473ffffffffffffffffffffffffffffffffffffffff16331461075a576040805160e560020a62461bcd02815260206004820152602560248201527f4f6e6c7920746865206f776e65722063616e206b696c6c207468697320636f6e60448201527f7472616374000000000000000000000000000000000000000000000000000000606482015290519081900360840190fd5b60075473ffffffffffffffffffffffffffffffffffffffff16ff5b60046020526000908152604090205481565b60025481565b60055460ff1681565b60015481565b60035460a060020a900460ff1681565b6000806003805460a060020a900460ff16908111156107c757fe5b1461080a576040805160e560020a62461bcd02815260206004820152600d60248201526000805160206109e4833981519152604482015290519081900360640190fd5b6040805190810160405280602081526020017f4e6f20636f6e747269627574696f6e7320616674657220646561646c696e652181525060025461084b6109dd565b82911161089d5760405160e560020a62461bcd0281526004018080602001828103825283818151815260200191508051906020019080838360008381101561049b578181015183820152602001610483565b503360009081526004602052604090208054349081019091556006805490910190819055600154116106c1576005805460ff191660011790555050565b60065481565b6002806003805460a060020a900460ff16908111156108fb57fe5b1461093e576040805160e560020a62461bcd02815260206004820152600d60248201526000805160206109e4833981519152604482015290519081900360640190fd5b60035460065460405173ffffffffffffffffffffffffffffffffffffffff9092169181156108fc0291906000818181858888f19350505050156109b5576003805474ff00000000000000000000000000000000000000001916740300000000000000000000000000000000000000001790556109da565b6003805474ff0000000000000000000000000000000000000000191660a060020a1790555b50565b600854905600496e76616c696420737461746500000000000000000000000000000000000000a165627a7a72305820c558721210e8989efb8f528c935f592a6a645fe205261a179b605a6a23c43d550029",
  "source": "pragma solidity ^0.4.25;\nimport \"./CrowdFundingWithDeadline.sol\";\n\ncontract TestCrowdFundingWithDeadline is CrowdFundingWithDeadline {\n\n  uint time;\n\n  constructor (\n      string contractName,\n      uint targetAmountEth,\n      uint durationInMin,\n      address beneficiaryAddress\n    ) CrowdFundingWithDeadline(contractName, targetAmountEth, durationInMin, beneficiaryAddress) public {}\n\n  function currentTime() internal view returns(uint) {\n    return time;\n  }\n\n  function setTime(uint newTime) public {\n    time = newTime;\n  }\n  \n}",
  "sourcePath": "/Users/ppgdeveloper2/Desktop/ethereum/crowd_funding/contracts/TestCrowdFundingWithDeadline.sol",
  "compiler": {
    "name": "solc",
    "version": "0.4.25+commit.59dbf8f1.Emscripten.clang"
  },
  "schemaVersion": "3.0.6",
  "updatedAt": "2020-01-03T01:16:50.891Z",
  "devdoc": {
    "methods": {}
  },
  "userdoc": {
    "methods": {}
  }
}