{
  "contractName": "Utils",
  "abi": [
    {
      "constant": true,
      "inputs": [
        {
          "name": "sumInEth",
          "type": "uint256"
        }
      ],
      "name": "etherToWei",
      "outputs": [
        {
          "name": "",
          "type": "uint256"
        }
      ],
      "payable": false,
      "stateMutability": "pure",
      "type": "function",
      "signature": "0xd8916bb9"
    },
    {
      "constant": true,
      "inputs": [
        {
          "name": "timInMin",
          "type": "uint256"
        }
      ],
      "name": "minutesToSeconds",
      "outputs": [
        {
          "name": "",
          "type": "uint256"
        }
      ],
      "payable": false,
      "stateMutability": "pure",
      "type": "function",
      "signature": "0x529b380f"
    }
  ],
  "bytecode": "0x60c761002f600b82828239805160001a6073146000811461001f57610021565bfe5b5030600052607381538281f3007300000000000000000000000000000000000000003014608060405260043610605f5763ffffffff7c0100000000000000000000000000000000000000000000000000000000600035041663529b380f81146064578063d8916bb914607f575b600080fd5b606d6004356088565b60408051918252519081900360200190f35b606d600435608e565b603c0290565b670de0b6b3a764000002905600a165627a7a72305820d5f451cb983c7cc0b40cb8e1a43d390dd5ca53090b7cf58fb8a8269ce378cd750029",
  "source": "pragma solidity ^0.4.25;\n\nlibrary Utils {\n  function etherToWei(uint sumInEth) public pure returns(uint) {\n    return sumInEth * 1 ether;\n  }\n\n  function minutesToSeconds(uint timInMin) public pure returns(uint) {\n    return timInMin * 1 minutes;\n  }\n}",
  "sourcePath": "/Users/ppgdeveloper2/Desktop/ethereum/crowd_funding/contracts/Utils.sol",
  "compiler": {
    "name": "solc",
    "version": "0.4.25+commit.59dbf8f1.Emscripten.clang"
  },
  "schemaVersion": "3.0.6",
  "updatedAt": "2020-01-03T01:16:50.886Z",
  "devdoc": {
    "methods": {}
  },
  "userdoc": {
    "methods": {}
  }
}