{
  "contractName": "Voter",
  "abi": [
    {
      "constant": true,
      "inputs": [
        {
          "name": "",
          "type": "uint256"
        }
      ],
      "name": "options",
      "outputs": [
        {
          "name": "",
          "type": "string"
        }
      ],
      "payable": false,
      "stateMutability": "view",
      "type": "function",
      "signature": "0x409e2205"
    },
    {
      "constant": true,
      "inputs": [
        {
          "name": "",
          "type": "uint256"
        }
      ],
      "name": "votes",
      "outputs": [
        {
          "name": "",
          "type": "uint256"
        }
      ],
      "payable": false,
      "stateMutability": "view",
      "type": "function",
      "signature": "0x5df81330"
    },
    {
      "constant": false,
      "inputs": [
        {
          "name": "_option",
          "type": "string"
        }
      ],
      "name": "addOption",
      "outputs": [],
      "payable": false,
      "stateMutability": "nonpayable",
      "type": "function",
      "signature": "0xedc550dc"
    },
    {
      "constant": false,
      "inputs": [],
      "name": "startVoting",
      "outputs": [],
      "payable": false,
      "stateMutability": "nonpayable",
      "type": "function",
      "signature": "0x1ec6b60a"
    },
    {
      "constant": false,
      "inputs": [
        {
          "name": "_option",
          "type": "uint256"
        }
      ],
      "name": "vote",
      "outputs": [],
      "payable": false,
      "stateMutability": "nonpayable",
      "type": "function",
      "signature": "0x0121b93f"
    },
    {
      "constant": false,
      "inputs": [
        {
          "name": "optionName",
          "type": "string"
        }
      ],
      "name": "vote",
      "outputs": [],
      "payable": false,
      "stateMutability": "nonpayable",
      "type": "function",
      "signature": "0xfc36e15b"
    },
    {
      "constant": true,
      "inputs": [],
      "name": "getVotes",
      "outputs": [
        {
          "name": "",
          "type": "uint256[]"
        }
      ],
      "payable": false,
      "stateMutability": "view",
      "type": "function",
      "signature": "0x0dc96015"
    }
  ],
  "bytecode": "0x608060405234801561001057600080fd5b50610964806100206000396000f3006080604052600436106100825763ffffffff7c01000000000000000000000000000000000000000000000000000000006000350416630121b93f81146100875780630dc96015146100a15780631ec6b60a14610106578063409e22051461011b5780635df81330146101a8578063edc550dc146101d2578063fc36e15b1461022b575b600080fd5b34801561009357600080fd5b5061009f600435610284565b005b3480156100ad57600080fd5b506100b66103aa565b60408051602080825283518183015283519192839290830191858101910280838360005b838110156100f25781810151838201526020016100da565b505050509050019250505060405180910390f35b34801561011257600080fd5b5061009f610403565b34801561012757600080fd5b5061013360043561055d565b6040805160208082528351818301528351919283929083019185019080838360005b8381101561016d578181015183820152602001610155565b50505050905090810190601f16801561019a5780820380516001836020036101000a031916815260200191505b509250505060405180910390f35b3480156101b457600080fd5b506101c0600435610604565b60408051918252519081900360200190f35b3480156101de57600080fd5b506040805160206004803580820135601f810184900484028501840190955284845261009f9436949293602493928401919081908401838280828437509497506106239650505050505050565b34801561023757600080fd5b506040805160206004803580820135601f810184900484028501840190955284845261009f9436949293602493928401919081908401838280828437509497506106c69650505050505050565b80600011158015610296575060015481105b15156102ec576040805160e560020a62461bcd02815260206004820152600e60248201527f496e76616c6964206f7074696f6e000000000000000000000000000000000000604482015290519081900360640190fd5b3360009081526002602052604090205460ff1615610354576040805160e560020a62461bcd02815260206004820152601c60248201527f4163636f756e742068617320616c726561647920766f74656421212100000000604482015290519081900360640190fd5b600080548290811061036257fe5b906000526020600020015460010160008281548110151561037f57fe5b6000918252602080832090910192909255338152600290915260409020805460ff1916600117905550565b606060008054806020026020016040519081016040528092919081815260200182805480156103f857602002820191906000526020600020905b8154815260200190600101908083116103e4575b505050505090505b90565b600061040d610865565b60045460ff1615610468576040805160e560020a62461bcd02815260206004820152601d60248201527f566f74696e6720686173206e6f74207374617274656420796574212121000000604482015290519081900360640190fd5b60015461047660008261087c565b50600091505b60015482101561054c57506040805180820190915281815260016020820181905280548291600391859081106104ae57fe5b9060005260206000200160405180828054600181600116156101000203166002900480156105135780601f106104f1576101008083540402835291820191610513565b820191906000526020600020905b8154815290600101906020018083116104ff575b5050928352505060405160209181900382019020825181559101516001918201805460ff1916911515919091179055919091019061047c565b50506004805460ff19166001179055565b600180548290811061056b57fe5b600091825260209182902001805460408051601f60026000196101006001871615020190941693909304928301859004850281018501909152818152935090918301828280156105fc5780601f106105d1576101008083540402835291602001916105fc565b820191906000526020600020905b8154815290600101906020018083116105df57829003601f168201915b505050505081565b600080548290811061061257fe5b600091825260209091200154905081565b60045460ff161561067e576040805160e560020a62461bcd02815260206004820152601b60248201527f566f74696e6720686173206e6f74207374617274656420796574210000000000604482015290519081900360640190fd5b6001805480820180835560009290925282516106c1917fb10e2d527612073b26eecdfd717e6a320cf44b4afac2b0732d9fcbe2b7fa0cf6019060208501906108a0565b505050565b6106ce610865565b3360009081526002602052604090205460ff1615610736576040805160e560020a62461bcd02815260206004820152601c60248201527f4163636f756e742068617320616c726561647920766f74656421212100000000604482015290519081900360640190fd5b6003826040518082805190602001908083835b602083106107685780518252601f199092019160209182019101610749565b51815160209384036101000a6000190180199092169116179052920194855250604080519485900382018520858201909152805485526001015460ff161515908401819052929350610807915050576040805160e560020a62461bcd02815260206004820152601660248201527f4f7074696f6e20646f6573206e6f742065786973747300000000000000000000604482015290519081900360640190fd5b805160008054909190811061081857fe5b90600052602060002001546001016000826000015181548110151561083957fe5b6000918252602080832090910192909255338152600290915260409020805460ff191660011790555050565b604080518082019091526000808252602082015290565b8154818355818111156106c1576000838152602090206106c191810190830161091e565b828054600181600116156101000203166002900490600052602060002090601f016020900481019282601f106108e157805160ff191683800117855561090e565b8280016001018555821561090e579182015b8281111561090e5782518255916020019190600101906108f3565b5061091a92915061091e565b5090565b61040091905b8082111561091a57600081556001016109245600a165627a7a72305820740cba1ec22894a4e897e28212406caacf8769e3ff1ce1268932455b086093ca0029",
  "source": "pragma solidity ^0.4.25;\n\ncontract Voter {\n    struct OptionPos {\n        uint pos;\n        bool exists;\n    }\n    uint[] public votes;\n    string[] public options;\n    mapping (address => bool) hasVoted;\n    mapping (string => OptionPos) postOfOption;\n    bool votingStarted;\n    function addOption(string memory _option) public {\n      require(!votingStarted, 'Voting has not started yet!');\n      options.push(_option);\n    }\n    function startVoting() public {\n      require(!votingStarted, 'Voting has not started yet!!!');\n      votes.length = options.length;\n      for (uint i = 0; i < options.length; i++) {\n        OptionPos memory option = OptionPos(i, true);\n        postOfOption[options[i]] = option;\n      }\n      votingStarted = true;\n    }\n    function vote(uint _option) public {\n        require(0 <= _option && _option < options.length, 'Invalid option');\n        require(!hasVoted[msg.sender], 'Account has already voted!!!');\n        votes[_option] = votes[_option] + 1;\n        hasVoted[msg.sender] = true;\n    }\n    function vote(string memory optionName) public {\n        require(!hasVoted[msg.sender], 'Account has already voted!!!');\n        OptionPos memory optionPos = postOfOption[optionName];\n        require(optionPos.exists, 'Option does not exists');\n        votes[optionPos.pos] = votes[optionPos.pos] + 1;\n        hasVoted[msg.sender] = true;\n    }\n    function getVotes() public view returns (uint[] memory) {\n        return votes;\n    }\n}\n\n",
  "sourcePath": "/Users/ppgdeveloper2/Desktop/ethereum/truffle-demo/contracts/Voter.sol",
  "compiler": {
    "name": "solc",
    "version": "0.4.25+commit.59dbf8f1.Emscripten.clang"
  },
  "schemaVersion": "3.0.6",
  "updatedAt": "2020-01-01T21:27:36.315Z",
  "devdoc": {
    "methods": {}
  },
  "userdoc": {
    "methods": {}
  }
}